:020000040000FA
:100000000C9462000C948A000C948A000C948A0070
:100010000C948A000C948A000C948A000C948A0038
:100020000C948A000C948A000C948A000C94680347
:100030000C948A000C948A000C948A000C948A0018
:100040000C941E030C948A000C94EC020C94C602CF
:100050000C948A000C948A000C948A000C948A00F8
:100060000C948A000C948A000000000024002700F1
:100070002A0000000000250028002B0000000000DE
:1000800023002600290004040404040404040202DA
:100090000202020203030303030301020408102007
:1000A0004080010204081020010204081020000012
:1000B0000008000201000003040700000000000027
:1000C0000000240411241FBECFEFD8E0DEBFCDBF57
:1000D00011E0A0E0B1E0EAEEFDE002C005900D9273
:1000E000A838B107D9F722E0A8E8B1E001C01D9215
:1000F000A336B207E1F710E0C2E6D0E004C02197D2
:10010000FE010E94ED06C136D107C9F70E948104A5
:100110000C94F3060C9400008F929F92AF92BF92C2
:10012000FF920F931F93CF93DF93F09060022BE029
:100130002F1508F44CC02091620208E512E0021B62
:10014000110927FD1395000F111F000F111F20919A
:100150006102C8E8D0E0C21BD10927FDD395CC0FBE
:10016000DD1FCC0FDD1F4E010D2E000CAA08BB08B1
:100170009801012E000C440B550B281939094A0926
:100180005B09DC010E94A80624EB30E040E050E06F
:100190000E947E06820E931EA41EB51E8C169D061E
:1001A0002CF0E801801691060CF4E4012297CC0FA4
:1001B000DD1F2FB7F8948F2D90E0FC01EE0FFF1F8D
:1001C000E80FF91FE55CFD4FD283C1832FBFDF919C
:1001D000CF911F910F91FF90BF90AF909F908F9004
:1001E0000895AF92BF92CF92DF92EF92FF920F935A
:1001F0001F93CF93DF936C017B018B01040F151FBD
:10020000EB015E01AE18BF08C017D10759F0699124
:10021000D601ED91FC910190F081E02DC601099588
:10022000892B79F7C501DF91CF911F910F91FF9035
:10023000EF90DF90CF90BF90AF900895FC01538D69
:10024000448D252F30E0842F90E0821B930B5417B0
:1002500010F0CF96089501970895FC01918D828D3D
:10026000981761F0A28DAE0FBF2FB11D5D968C91D6
:10027000928D9F5F9F73928F90E008958FEF9FEF15
:100280000895FC01918D828D981731F0828DE80FD1
:10029000F11D858D90E008958FEF9FEF0895FC018B
:1002A000918D228D892F90E0805C9F4F821B910958
:1002B0008F73992708958EE991E00E944F0121E004
:1002C000892B09F420E0822F089580E090E0892BAB
:1002D00029F00E945B0181110C9400000895FC013B
:1002E000A48DA80FB92FB11DA35ABF4F2C91848D97
:1002F00090E001968F739927848FA689B7892C93F4
:10030000A089B1898C91837080648C93938D848D46
:10031000981306C00288F389E02D80818F7D808349
:100320000895EF92FF920F931F93CF93DF93EC0109
:1003300081E0888F9B8D8C8D98131AC0E889F9898C
:10034000808185FF15C09FB7F894EE89FF8960838F
:10035000E889F98980818370806480839FBF81E010
:1003600090E0DF91CF911F910F91FF90EF90089552
:10037000F62E0B8D10E00F5F1F4F0F731127E02E2D
:100380008C8D8E110CC00FB607FCFACFE889F98965
:10039000808185FFF5CFCE010E946F01F1CFEB8DFB
:1003A000EC0FFD2FF11DE35AFF4FF0829FB7F89439
:1003B0000B8FEA89FB8980818062CFCFCF93DF9357
:1003C000EC01888D8823B9F0AA89BB89E889F9896D
:1003D0008C9185FD03C0808186FD0DC00FB607FCA2
:1003E000F7CF8C9185FFF2CF808185FFEDCFCE01D5
:1003F0000E946F01E9CFDF91CF910895833081F0A2
:1004000028F4813099F08230A9F008958730A9F05E
:100410008830C9F08430B1F4809180008F7D03C0B2
:10042000809180008F7780938000089584B58F77C6
:1004300084BD089584B58F7DFBCF8091B0008F7708
:100440008093B00008958091B0008F7DF9CF1F9305
:10045000CF93DF93282F30E0F901E255FF4F8491CD
:10046000F901E656FF4FD491F901EA57FF4FC491C5
:10047000CC23A9F0162F81110E94FE01EC2FF0E091
:10048000EE0FFF1FEE58FF4FA591B4918FB7F89470
:10049000EC91111108C0D095DE23DC938FBFDF9162
:1004A000CF911F910895DE2BF8CFCF93DF9390E08B
:1004B000FC01E656FF4F24918A579F4FFC0184911F
:1004C0008823D1F090E0880F991FFC01E859FF4F75
:1004D000A591B491FC01EE58FF4FC591D4916111E3
:1004E0000EC09FB7F8948C91E22FE0958E238C93E9
:1004F0002881E223E8839FBFDF91CF9108958FB7D2
:10050000F894EC91E22BEC938FBFF6CF3FB7F894C1
:1005100080918E0190918F01A0919001B0919101F5
:1005200026B5A89B05C02F3F19F00196A11DB11D4E
:100530003FBFBA2FA92F982F8827BC01CD01620F8A
:10054000711D811D911D42E0660F771F881F991F45
:100550004A95D1F70895FC0101900020E9F7319701
:10056000AF01481B590BBC018EE991E00C94F100DE
:10057000CF93DF930E94AB02EC0182E191E00E94F5
:10058000AB028C0F9D1FDF91CF9108951F920F92A8
:100590000FB60F9211242F933F934F935F936F9356
:1005A0007F938F939F93AF93BF93EF93FF938EE9C6
:1005B00091E00E946F01FF91EF91BF91AF919F91E8
:1005C0008F917F916F915F914F913F912F910F90FC
:1005D0000FBE0F901F9018951F920F920FB60F929B
:1005E00011242F938F939F93EF93FF93E091AE018C
:1005F000F091AF018081E091B401F091B50182FDED
:100600001BC090818091B7018F5F8F732091B801DB
:10061000821741F0E091B701F0E0E256FE4F958F6E
:100620008093B701FF91EF919F918F912F910F9040
:100630000FBE0F901F9018958081F4CF1F920F92DC
:100640000FB60F9211242F933F938F939F93AF93E5
:10065000BF9380918A0190918B01A0918C01B09100
:100660008D013091890123E0230F2D3758F5019634
:10067000A11DB11D2093890180938A0190938B0164
:10068000A0938C01B0938D0180918E0190918F0188
:10069000A0919001B09191010196A11DB11D80938F
:1006A0008E0190938F01A0939001B0939101BF911F
:1006B000AF919F918F913F912F910F900FBE0F900F
:1006C0001F90189526E8230F0296A11DB11DD2CFC9
:1006D0001F920F920FB60F9211242F933F934F93B7
:1006E0005F936F937F938F939F93AF93BF93CF93BA
:1006F000DF93EF93FF9380918801C0915F02D0E078
:1007000087FF24C010928500109284008091880198
:100710008F5F8093880180918801082E000C990BCF
:100720008C179D0724F4809188018C30C4F180914E
:10073000840090918500049680349C4908F47AC026
:100740008091840090918500049676C08091880104
:10075000082E000C990B8C179D07C4F6E0918801B8
:100760008E2FEE0F990BFC01EE0FFF1FE80FF91F04
:10077000E55CFD4F808186FFC9CFE09188018E2F17
:10078000EE0F990BFC01EE0FFF1FE80FF91FE55C60
:10079000FD4F808160E08F730E942702B7CF2091C8
:1007A000840030918500E09188018E2FEE0F990B27
:1007B000FC01EE0FFF1FE80FF91FE55CFD4F818183
:1007C0009281820F931F9093890080938800E0911B
:1007D00088018E2FEE0F990BFC01EE0FFF1FE80F23
:1007E000F91FE55CFD4F808186FF11C0E091880113
:1007F0008E2FEE0F990BFC01EE0FFF1FE80FF91F74
:10080000E55CFD4F808161E08F730E942702FF91BC
:10081000EF91DF91CF91BF91AF919F918F917F9198
:100820006F915F914F913F912F910F900FBE0F905D
:100830001F90189580E49CE990938900809388002C
:100840008FEF80938801E3CF1092A1011092A00155
:1008500088EE93E0A0E0B0E08093A2019093A30122
:10086000A093A401B093A50184E091E090939F012F
:1008700080939E0185EC90E09093AB018093AA0158
:1008800084EC90E09093AD018093AC0180EC90E01B
:100890009093AF018093AE0181EC90E09093B10111
:1008A0008093B00182EC90E09093B3018093B20109
:1008B00086EC90E09093B5018093B4011092B7015B
:1008C0001092B8011092B9011092BA0180915F02A2
:1008D0008C3098F491E0980F90935F0280936002BF
:1008E00090E0FC01EE0FFF1FE80FF91FE55CFD4FE4
:1008F00088EB9BE09283818308958FEF8093600261
:100900000895CF93DF93CDB7DEB7A1970FB6F894D4
:10091000DEBF0FBECDBF789484B5826084BD84B540
:10092000816084BD85B5826085BD85B5816085BDEA
:1009300080916E00816080936E00109281008091A2
:10094000810082608093810080918100816080932A
:100950008100809180008160809380008091B1004F
:1009600084608093B1008091B00081608093B0007A
:1009700080917A00846080937A0080917A0082600E
:1009800080937A0080917A00816080937A008091D0
:100990007A00806880937A001092C100E091AE01E5
:1009A000F091AF0182E08083E091AA01F091AB0168
:1009B0001082E091AC01F091AD018FEC8083109238
:1009C000B601E091B201F091B30186E08083E0913D
:1009D000B001F091B101808180618083E091B0012C
:1009E000F091B101808188608083E091B001F09145
:1009F000B101808180688083E091B001F091B10104
:100A000080818F7D808361E084E00E94550260E0F8
:100A100085E00E945502809160028C3008F051C040
:100A200061E08BE00E94550280916002282F30E047
:100A3000F901EE0FFF1FE20FF31FE55CFD4F908100
:100A4000907C9B60908310926102109262022CE075
:100A5000622F0E94E106829FB001112430E020E065
:100A6000AB01420F531FFA01EE0FFF1FE40FF51FFA
:100A7000E55CFD4F908196FD16C02F5F3F4F2C30F7
:100A8000310571F781110FC01092800082E08093D0
:100A900081001092850010928400B19A80916F00BD
:100AA000826080936F00E09160028E2F90E0FC01E5
:100AB000EE0FFF1FE80FF91FE55CFD4F808180649A
:100AC00080834AE0442E512C612C712C50E0252E5D
:100AD00050E0352E10E001E060E084E00E94270243
:100AE000E3EBF0E08491EFE9F0E0F490EBE8F0E084
:100AF000E490EE2071F081110E94FE01EE2DF0E0F5
:100B0000EE0FFF1FE458FF4FA591B4918C91F8228E
:100B100009F4102F61E084E00E9427020F5F093082
:100B2000D9F6112309F4B9C0E0919C01F0919D011F
:100B3000EE0FFF1FEC56FE4F812F90E091838083D4
:100B400085E191E00E94AB02E0919C01F0919D0152
:100B5000EE0FFF1FEC56FE4FC080D1800D2C000C15
:100B6000EE08FF08F7FEA5C06DE28EE991E00E9455
:100B7000910122273327A9012C193D094E095F094C
:100B800019A28E010F5D1F4FCA01B901A301920185
:100B90000E94B006605DF80162938F012115310556
:100BA0004105510589F70115110519F0C8010E9489
:100BB000AB0282E191E00E94AB0200919C01109196
:100BC0009D010F5F1F4F10939D0100939C010E9498
:100BD00086024B015C0184EFC82EDD24D394E12C06
:100BE000F12C0E948602681979098A099B09683EDE
:100BF000734081059105A8F3F1E0CF1AD108E1080F
:100C0000F10828EE820E23E0921EA11CB11CC11433
:100C1000D104E104F10429F704301105F1F58091C4
:100C2000920190919301209194013091950121308E
:100C3000310509F4019620919601309197012230F7
:100C4000310509F4019620919801309199012330E2
:100C5000310509F4019620919A0130919B012430CD
:100C6000310509F4019610929301109292010497B4
:100C7000B1F58EE191E00E94B80282E191E00E941C
:100C8000AB0284EB90E00E948C0084E391E00E9430
:100C9000B80210929D0110929C012114310409F4B4
:100CA00019CF0E945B01882309F414CF0E94000031
:100CB00011CFA701960119A28E010F5D1F4FCA0126
:100CC000B901A30192010E94B006605DF801629330
:100CD0008F01211531054105510589F764CF82E562
:100CE00091E00E94B80282E191E00E94AB0290E0A4
:100CF00080E00E948C0086E691E0C9CF052E97FB2C
:100D00001EF400940E94950657FD07D00E94B0067D
:100D100007FC03D04EF40C94950650954095309501
:100D200021953F4F4F4F5F4F089590958095709557
:100D300061957F4F8F4F9F4F08950E94D206A59FC8
:100D4000900DB49F900DA49F800D911D11240895C6
:100D5000B7FF0C949D060E949D06821B930B08957D
:100D6000A1E21A2EAA1BBB1BFD010DC0AA1FBB1FAF
:100D7000EE1FFF1FA217B307E407F50720F0A21B21
:100D8000B30BE40BF50B661F771F881F991F1A948E
:100D900069F760957095809590959B01AC01BD01B8
:100DA000CF010895A29FB001B39FC001A39F700D12
:100DB000811D1124911DB29F700D811D1124911D63
:100DC0000895991B79E004C0991F961708F0961BA7
:100DD000881F7A95C9F780950895EE0FFF1F05903B
:100DE000F491E02D0994F894FFCF000000009101E8
:100DF000F1001E01DE014F012D0141010D0A0050DD
:100E0000555348203A202000436F72726563742066
:100E100050617373776F726420212121200070610B
:100E20007373776F7264206D617463682C206F70C8
:100E3000656E2074686520646F6F720057726F6E04
:100E4000672050617373776F726420212121200025
:100E500070617373776F7264206D69736D61746311
:100E6000682C2072756E207468652063616D6572F0
:020E700061001F
:107E0000112484B714BE81FFF0D085E080938100F7
:107E100082E08093C00088E18093C10086E0809377
:107E2000C20080E18093C4008EE0C9D0259A86E02C
:107E300020E33CEF91E0309385002093840096BBD3
:107E4000B09BFECF1D9AA8958150A9F7CC24DD24C4
:107E500088248394B5E0AB2EA1E19A2EF3E0BF2EE7
:107E6000A2D0813461F49FD0082FAFD0023811F036
:107E7000013811F484E001C083E08DD089C08234E0
:107E800011F484E103C0853419F485E0A6D080C0E4
:107E9000853579F488D0E82EFF2485D0082F10E0AE
:107EA000102F00270E291F29000F111F8ED06801E7
:107EB0006FC0863521F484E090D080E0DECF843638
:107EC00009F040C070D06FD0082F6DD080E0C81688
:107ED00080E7D80618F4F601B7BEE895C0E0D1E017
:107EE00062D089930C17E1F7F0E0CF16F0E7DF06D8
:107EF00018F0F601B7BEE89568D007B600FCFDCFD4
:107F0000A601A0E0B1E02C9130E011968C91119780
:107F100090E0982F8827822B932B1296FA010C0160
:107F200087BEE89511244E5F5F4FF1E0A038BF0790
:107F300051F7F601A7BEE89507B600FCFDCF97BE46
:107F4000E89526C08437B1F42ED02DD0F82E2BD052
:107F50003CD0F601EF2C8F010F5F1F4F84911BD097
:107F6000EA94F801C1F70894C11CD11CFA94CF0C13
:107F7000D11C0EC0853739F428D08EE10CD085E9AC
:107F80000AD08FE07ACF813511F488E018D01DD067
:107F900080E101D065CF982F8091C00085FFFCCF94
:107FA0009093C60008958091C00087FFFCCF809118
:107FB000C00084FD01C0A8958091C6000895E0E648
:107FC000F0E098E1908380830895EDDF803219F02E
:107FD00088E0F5DFFFCF84E1DECF1F93182FE3DFCA
:107FE0001150E9F7F2DF1F91089580E0E8DFEE27F6
:047FF000FF270994CA
:027FFE00040479
:00000001FF
