:100000000C9462000C948A000C948A000C948A0070
:100010000C948A000C948A000C948A000C948A0038
:100020000C948A000C948A000C948A000C948A0028
:100030000C948A000C948A000C948A000C948A0018
:100040000C9477020C948A000C9445020C941F02C5
:100050000C948A000C948A000C948A000C948A00F8
:100060000C948A000C948A000000000024002700F1
:100070002A000000000023002600290000000000E4
:10008000250028002B0004040404040404040202D4
:100090000202020203030303030301020408102007
:1000A0004080010204081020010204081020000012
:1000B0000008000201000003040700000000000027
:1000C00000008A0411241FBECFEFD8E0DEBFCDBFF1
:1000D00011E0A0E0B1E0E2ECF9E002C005900D9281
:1000E000A834B107D9F721E0A8E4B1E001C01D921E
:1000F000AA3FB207E1F710E0C2E6D0E004C02197C2
:10010000FE010E94D904C136D107C9F70E94C1027D
:100110000C94DF040C940000AF92BF92CF92DF9258
:10012000EF92FF920F931F93CF93DF936C017B01AC
:100130008B01040F151FEB015E01AE18BF08C0173D
:10014000D10759F06991D601ED91FC910190F081B0
:10015000E02DC6010995892B79F7C501DF91CF9173
:100160001F910F91FF90EF90DF90CF90BF90AF90D5
:100170000895FC01538D448D252F30E0842F90E0AD
:10018000821B930B541710F0CF9608950197089592
:10019000FC01918D828D981761F0A28DAE0FBF2F5B
:1001A000B11D5D968C91928D9F5F9F73928F90E0B1
:1001B00008958FEF9FEF0895FC01918D828D981720
:1001C00031F0828DE80FF11D858D90E008958FEF5D
:1001D0009FEF0895FC01918D228D892F90E0805C26
:1001E0009F4F821B91098F73992708958DE591E0A8
:1001F0000E94EA0021E0892B09F420E0822F089573
:1002000080E090E0892B29F00E94F60081110C9487
:1002100000000895FC01A48DA80FB92FB11DA35AA9
:10022000BF4F2C91848D90E001968F739927848F16
:10023000A689B7892C93A089B1898C918370806439
:100240008C93938D848D981306C00288F389E02DDA
:1002500080818F7D80830895EF92FF920F931F938B
:10026000CF93DF93EC0181E0888F9B8D8C8D981369
:100270001AC0E889F989808185FF15C09FB7F89475
:10028000EE89FF896083E889F989808183708064C1
:1002900080839FBF81E090E0DF91CF911F910F910C
:1002A000FF90EF900895F62E0B8D10E00F5F1F4F1B
:1002B0000F731127E02E8C8D8E110CC00FB607FC2A
:1002C000FACFE889F989808185FFF5CFCE010E94B8
:1002D0000A01F1CFEB8DEC0FFD2FF11DE35AFF4F1B
:1002E000F0829FB7F8940B8FEA89FB898081806246
:1002F000CFCFCF93DF93EC01888D8823B9F0AA8903
:10030000BB89E889F9898C9185FD03C0808186FDD0
:100310000DC00FB607FCF7CF8C9185FFF2CF80811F
:1003200085FFEDCFCE010E940A01E9CFDF91CF9189
:100330000895833081F028F4813099F08230A9F05B
:1003400008958730A9F08830C9F08430B1F48091E5
:1003500080008F7D03C0809180008F778093800024
:10036000089584B58F7784BD089584B58F7DFBCFC4
:100370008091B0008F778093B00008958091B00095
:100380008F7DF9CF1F93CF93DF93E2EBF0E0949151
:10039000EEE9F0E0D491EAE8F0E0C491CC23B9F0C2
:1003A000182F992319F0892F0E949901EC2FF0E062
:1003B000EE0FFF1FE458FF4FA591B4918FB7F8944B
:1003C000EC91111108C0D095DE23DC938FBFDF9133
:1003D000CF911F910895DE2BF8CF3FB7F89480910D
:1003E0004D0190914E01A0914F01B091500126B561
:1003F000A89B05C02F3F19F00196A11DB11D3FBF5D
:10040000BA2FA92F982F8827BC01CD01620F711D2B
:10041000811D911D42E0660F771F881F991F4A9525
:10042000D1F70895FC0101900020E9F73197AF0161
:10043000481B590BBC018DE591E00C948C001F9278
:100440000F920FB60F9211242F933F934F935F9308
:100450006F937F938F939F93AF93BF93EF93FF938C
:100460008DE591E00E940A01FF91EF91BF91AF915C
:100470009F918F917F916F915F914F913F912F91BC
:100480000F900FBE0F901F9018951F920F920FB6EE
:100490000F9211242F938F939F93EF93FF93E091EB
:1004A0006D01F0916E018081E0917301F091740112
:1004B00082FD1BC09081809176018F5F8F732091A8
:1004C0007701821741F0E0917601F0E0E35AFE4FA8
:1004D000958F80937601FF91EF919F918F912F914E
:1004E0000F900FBE0F901F9018958081F4CF1F9230
:1004F0000F920FB60F9211242F933F938F939F93D8
:10050000AF93BF938091490190914A01A0914B0113
:10051000B0914C013091480123E0230F2D3758F55D
:100520000196A11DB11D209348018093490190932C
:100530004A01A0934B01B0934C0180914D019091E1
:100540004E01A0914F01B09150010196A11DB11D26
:1005500080934D0190934E01A0934F01B0935001B1
:10056000BF91AF919F918F913F912F910F900FBEAF
:100570000F901F90189526E8230F0296A11DB11D1C
:10058000D2CFCF93DF93CDB7DEB7A1970FB6F89454
:10059000DEBF0FBECDBF789484B5826084BD84B5C4
:1005A000816084BD85B5826085BD85B5816085BD6E
:1005B00080916E00816080936E0010928100809126
:1005C00081008260809381008091810081608093AE
:1005D0008100809180008160809380008091B100D3
:1005E00084608093B1008091B00081608093B000FE
:1005F00080917A00846080937A0080917A00826092
:1006000080937A0080917A00816080937A00809153
:100610007A00806880937A001092C100E0916D01A9
:10062000F0916E0182E08083E0916901F0916A01AE
:100630001082E0916B01F0916C018FEC808310923D
:100640007501E0917101F091720186E08083E09183
:100650006F01F0917001808180618083E0916F0172
:10066000F0917001808188608083E0916F01F0914A
:100670007001808180688083E0916F01F09170014A
:1006800080818F7D8083EEE9F0E02491EAE8F0E05C
:100690008491882399F090E0880F991FFC01E85914
:1006A000FF4FA591B491FC01E458FF4F85919491BF
:1006B0008FB7F894EC91E22BEC938FBFEFE9F0E069
:1006C0002491EBE8F0E084918823C9F090E0880F52
:1006D000991FFC01E859FF4FA591B491FC01E45822
:1006E000FF4F459154913FB7F8949C91822F80958C
:1006F00098239C93FA019081892380833FBF4AE02D
:10070000442E512C612C712C50E0252E50E0352EBA
:1007100010E001E080E00E94C201E3EBF0E0849190
:10072000EFE9F0E0F490EBE8F0E0E490EE2071F017
:1007300081110E949901EE2DF0E0EE0FFF1FEE589F
:10074000FF4FA591B4918C91F82209F4102F81E00C
:100750000E94C2010F5F0930E9F6112309F4B5C008
:10076000E0915B01F0915C01EE0FFF1FED5AFE4F2F
:10077000812F90E09183808382E191E00E941202B8
:10078000E0915B01F0915C01EE0FFF1FED5AFE4F0F
:10079000C080D1800D2C000CEE08FF08F7FEA1C030
:1007A0006DE28DE591E00E942C0122273327A901FB
:1007B0002C193D094E095F0919A28E010F5D1F4FCB
:1007C000CA01B901A30192010E94B704605DF8015A
:1007D00062938F01211531054105510589F70115F6
:1007E000110519F0C8010E9412028BE191E00E94EC
:1007F000120200915B0110915C010F5F1F4F10937B
:100800005C0100935B010E94ED014B015C0184EFF0
:10081000C82EDD24D394E12CF12C0E94ED0168193F
:1008200079098A099B09683E734081059105A8F3FF
:10083000F1E0CF1AD108E108F10828EE820E23E09A
:10084000921EA11CB11CC114D104E104F10429F7CA
:1008500004301105D1F58091510190915201209100
:100860005301309154012130310509F40196209152
:100870005501309156012230310509F4019620913D
:100880005701309158012330310509F40196209128
:10089000590130915A012430310509F40196109222
:1008A000520110925101049791F58EE191E00E945E
:1008B00012028BE191E00E9412028BE191E00E9412
:1008C000120210925C0110925B012114310409F4B0
:1008D0001FCF0E94F600882309F41ACF0E9400005F
:1008E00017CFA701960119A28E010F5D1F4FCA01F4
:1008F000B901A30192010E94B704605DF8016293FF
:100900008F01211531054105510589F768CF84E331
:1009100091E0CDCFEDE5F1E01382128288EE93E015
:10092000A0E0B0E084839583A683B78384E091E060
:100930009183808385EC90E09587848784EC90E0B8
:100940009787868780EC90E0918B808B81EC90E09C
:10095000938B828B82EC90E0958B848B86EC90E07D
:10096000978B868B118E128E138E148E0895A1E2B2
:100970001A2EAA1BBB1BFD010DC0AA1FBB1FEE1F19
:10098000FF1FA217B307E407F50720F0A21BB30B64
:10099000E40BF50B661F771F881F991F1A9469F7E0
:1009A00060957095809590959B01AC01BD01CF013C
:1009B0000895EE0FFF1F0590F491E02D0994F8942F
:0209C000FFCF67
:1009C200000000002C018C00B9007901EA00C80087
:1009D200DC0050555348203A2020000D0A00436F96
:1009E20072726563742050617373776F7264202131
:1009F2002121200057726F6E672050617373776FE9
:080A0200726420212121200073
:00000001FF
